:020000040800F2
:100000006008002081020008B12C00085D20000873
:10001000AD2C000831050008354E00080000000036
:10002000000000000000000000000000C14C0008BB
:100030003505000800000000B52C0008C54C00087C
:100040009B0200089B0200089B0200089B0200081C
:100050009B0200089B0200089B0200089B0200080C
:100060009B0200089B0200089B0200089B020008FC
:100070009B0200089B0200089B0200089B020008EC
:100080009B020008000000009B0200089B02000881
:100090009B0200089B0200089B0200089B020008CC
:1000A000DD4C0008E94C00089B0200089B02000898
:1000B000F54C0008014D00080D4D00089B0200089A
:1000C0009B0200089B0200089B0200089B0200089C
:1000D0009B0200089B0200089B0200089B0200088C
:1000E0009B0200089B0200089B0200089B0200087C
:1000F0009B0200089B0200089B0200080000000011
:10010000000000009B020008000000009B020008A5
:100110009B020008000000009B0200089B020008F0
:100120009B0200089B0200089B0200089B0200083B
:100130009B02000800000000000000009B02000875
:100140009B0200089B020008000000000000000065
:10015000000000000000000000000000000000009F
:100160000000000000000000000000009B020008EA
:100170009B020008000000000000000000000000DA
:10018000000000009B0200080000000000000000CA
:10019000000000000000000000000000000000005F
:1001A00000000000000000009B0200089B02000805
:1001B0009B0200089B0200089B0200080000000050
:1001C000000000009B02000800000000000000008A
:1001D0009B0200089B02000800F002F800F041F8C2
:1001E0000AA090E8000C82448344AAF10107DA4592
:1001F00001D100F036F8AFF2090EBAE80F0013F0A3
:10020000010F18BFFB1A43F0010318474C660000AA
:100210006C660000103A24BF78C878C1FAD852073B
:1002200024BF30C830C144BF04680C607047000070
:100230000023002400250026103A28BF78C1FBD8EF
:10024000520728BF30C148BF0B607047642900F0D7
:100250007F80002070471FB505F0A5F91FBD10B5C0
:1002600010BD00F02AF91146FFF7F5FF05F020F95F
:1002700000F048F903B4FFF7F2FF03BC00F050F9B7
:100280000948804709480047FEE7FEE7FEE7FEE72A
:10029000FEE7FEE7FEE7FEE7FEE7FEE70448054966
:1002A000054A064B70470000C94C0008D9010008F8
:1002B000600200206008002060040020600400202C
:1002C0000FB41CB5074B06AA7B44694600900598FD
:1002D00000F0DBF80020694600F0EAF81CBC5DF88D
:1002E00014FB0000E50100002DE9F0410E46044634
:1002F000002020622046E168884730B3252805D0D9
:10030000D4E901219047206A401CF2E7E1682046C9
:1003100000278847050018D0A5F14100192802D808
:1003200020354FF400673246294620462760FFF704
:100330008DFF40B1012804D0F61D26F007060836CF
:10034000D8E7361DD6E72846DAE7206ABDE8F0810F
:100350002DE9F0410646002410687529314616A59E
:1003600010D0AFF30080002802DA404213A507E066
:1003700031688A0701D512A502E0490704D511A505
:10038000012401E0AFF3008000210A2206F12407D6
:1003900009E0B0FBF2FCB0FBF2F302FB1C003030D2
:1003A00078541846491C0028F3D123462A46304683
:1003B000BDE8F04100F00BB8000000002D00000087
:1003C0002B000000200000007047704770472DE9A7
:1003D000F0470D4699469246044600F1240801680C
:1003E000880604D5E06921F01001216000E00120B9
:1003F000A84201DD471B00E00027A1697A1902EB42
:100400000900081AA0612078C00602D42046AFF384
:100410000080002608E0D4E901211AF80600904780
:10042000206A401C761C20624E45F4DB2078C00612
:100430000AD52046AFF3008006E0D4E90121302040
:100440009047206A401C2062381EA7F10107F4DCA7
:1004500007E0D4E9012118F805009047206A401C04
:100460002062281EA5F10105F3DC2046AFF30080D1
:100470002078000602D50220BDE8F0870120FBE7C6
:1004800001694A1C02610878704700B58FB0CDE958
:1004900001310021059105497944CDE90310114648
:1004A0006846FFF721FF0FB000BD0000E5FFFFFF2A
:1004B0000A6802F8010B0A607047754600F02CF8D4
:1004C000AE4605006946534620F00700854618B041
:1004D00020B5FFF7E3FEBDE820404FF000064FF0E7
:1004E00000074FF000084FF0000BAC46ACE8C00925
:1004F000ACE8C009ACE8C009ACE8C00921F00701CC
:100500008D46704710B50446AFF300802046BDE825
:100510001040FFF7AFBE00000048704720000020E9
:1005200001491820ABBEFEE726000200704700001C
:10053000FEE7000070470000EFF3108072B600BFC6
:10054000FEE70000F0B581B040F28006C2F200067E
:1005500040F208077269F069C2F20007F96840F6D4
:1005600000448242C4F60004C8BF8A420ADC8A42C0
:10057000C8BF88420EDC8A42B8BF88421CDA012517
:1005800009E000BF8842F2DA306A002501303062AB
:1005900001E000BF002520460421012200F04CFAB2
:1005A000A4F580604FF400712A4600F045FA204619
:1005B0000421002200F040FAB269706AF9688242B0
:1005C000C8BF8A420ADC8A42C8BF88420EDC8A421F
:1005D000B8BF88421CDA012509E000BF8842F2DA80
:1005E000B06A00250130B06201E000BF002520465E
:1005F0000421012200F020FAA4F580604FF480610C
:100600002A4600F019FA20460421002200F014FACC
:10061000306AB16A00250844032820464FF00401DF
:100620004FF00102B8BF012500F006FAA4F5806082
:100630004FF400412A4600F0FFF920460421002231
:1006400000F0FAF900F07CF800F006F8D6E90501B0
:10065000F061716201B0F0BD10B540F2800EC2F2DF
:10066000000EDEF81420DEF81C309EF8011044F273
:10067000240C9A42C4F2010C0EDA69B90021CEF8BA
:100680002C20CCF80010DEF81420DEF81C300020FE
:100690009A42C8BF012025E09A42C4BF01218EF8CA
:1006A000011000209A42C8BF01201BDD012919D189
:1006B00040F20804DEF82C10C2F20004A468511ABB
:1006C000A142CEF8302015DDDCF8001047F22F549F
:1006D000A1420FD8DEF834100131CEF834100021D9
:1006E0008EF8011038B131B90020CEF83020CCF8A6
:1006F000000010BD01219A42BCBF01218EF80110FB
:100700009A42F6DA0129F4D140F20801DEF830000D
:10071000C2F200018968801A8842CEF82C20E8DDF8
:10072000DCF8000047F22F51884288BF10BDDEF888
:1007300034000130CEF8340000208EF8010010BDE6
:1007400010B540F2800EC2F2000EDEF81820DEF87E
:1007500024309EF8021044F2244C9A42C4F2010C58
:100760000EDA69B90021CEF83820CCF80010DEF896
:100770001820DEF8243000209A42C8BF012025E06E
:100780009A42C4BF01218EF8021000209A42C8BFCD
:1007900001201BDD012919D140F20804DEF83810D0
:1007A000C2F20004A468511AA142CEF83C2015DD23
:1007B000DCF8001047F22F54A1420FD8DEF84010A9
:1007C0000131CEF8401000218EF8021038B131B955
:1007D0000020CEF83C20CCF8000010BD01219A4248
:1007E000BCBF01218EF802109A42F6DA0129F4D139
:1007F00040F20801DEF83C00C2F200018968801A6C
:100800008842CEF83820E8DDDCF8000047F22F51AE
:10081000884288BF10BDDEF840000130CEF84000AD
:1008200000208EF8020010BDB0B5044600F00AF9B1
:10083000054640F20000C2F200004068611C18BF8B
:10084000044400BF00F0FEF8401BA042FAD3B0BD44
:100850002DE9F04F84B08E4641F20042C4F600020A
:10086000DEF8004006219042019008BF0521002CCF
:10087000009100F0D7800198002500F138424FEA3E
:10088000B2230098012700264FF00008052B38BF3F
:1008900018460090CDF808E00EE000BFDEF80040FA
:1008A00008F1010834FA07F106F1020607F1010721
:1008B00005F1040500F0B680A7F1010A012000FA55
:1008C0000AF314EA0309E9D0DEF804C00CF0030BC4
:1008D000ABF10104012C17D80198744681680322FA
:1008E000E468B2409143B4402143816041684FEADB
:1008F000480E9943CCF3001303FA0AF30446D0439D
:10090000194361600CE000BF0321B140019CC84362
:10091000BBF1030FB64603D1B6464FF0030B23E0FD
:10092000E168029A01409368BBF1020F03FA0EF3EB
:1009300041EA0301E16017D16FF0030101EA5A01B6
:10094000214405F01C040F23D1F820C003FA04FB56
:1009500013692CEA0B0CA34043EA0C03019C0B62C5
:10096000D2F804C00CF0030B21680BFA0EF2014020
:1009700011432160DDF808E01CF4403F8ED041F2C5
:100980006000C4F20200016840F2004C41F0010135
:1009900001600168C4F2010C01F0010103910399A7
:1009A0002AF003014FF6084A6144CFF6FF7A05F0BA
:1009B0000C030F2051F80A2000FA03F40098A24318
:1009C00000FA03F31A4341F80A20DCF80810DEF8B5
:1009D000042041EA090340F20C40D40258BF21EA46
:1009E0000903CCF80830C4F201000168940241EA1E
:1009F000090358BF21EA09030360DCF804109403DB
:100A000041EA090358BF21EA0903CCF80430DCF8B5
:100A10000010D20341EA090358BF21EA0903CCF8C8
:100A200000303BE704B0BDE8F08F000000690840EB
:100A300018BF0120704700001823002A08BF282390
:100A4000C150704740F25820C2F200000068704761
:100A500040F2000040F25821C2F20000C2F2000150
:100A600040680A68104408607047000080B50320A1
:100A700000F088F80F2000F009F800281CBF0120C2
:100A800080BD00F029F8002080BD000070B540F264
:100A90000006C2F200067168E1B1044640F21C0093
:100AA000C2F200004FF47A720068B2FBF1F1B0FBC1
:100AB000F1F000F0F5FC0F2C4FF0010508D838B923
:100AC0004FF0FF3021460022002500F02FF834605F
:100AD000284670BD012070BD82B041F25800C4F2BA
:100AE0000200816841F001018160816801F001012B
:100AF00001910199016841F080510160006800F0A6
:100B000080500090009802B000F0E0B8002848BF84
:100B1000704700F01F01012202FA01F14EF20012AB
:100B20004009CEF2000242F82010704710B54EF690
:100B30000C5CCEF2000CDCF80030C3F3022E8EF019
:100B40000704042C28BF0424BEF103034FF0FF3E2A
:100B50000EFA04F438BF0023A14399400EFA03F3C0
:100B60009A43114300F00F02043A624409010C3227
:100B700000F16043B0F1FF3FC8BF03F5644211705C
:100B800010BD00004EF60C51CEF200010A684FF67F
:100B9000FF031A4060F30A2242F0806040F0FD70CB
:100BA00008607047B0F5007F42D0002840F0808098
:100BB00047F21400C4F2000050F8141CC26E01F495
:100BC000C06122F48072B1F5806FC2662ED150F8F8
:100BD000141C012262F34A2140F8141C40F21C014B
:100BE000C2F200010968322251434DF68362C4F219
:100BF0001B32A1FB0212910C0268520511D54A1C4E
:100C00000FD0026852050CD559B10268520508D5BB
:100C1000012906D00268520503D50229A1F1040179
:100C2000EAD10068400544BF0320704700207047A8
:100C300047F21400C4F2000050F8141CC26E01F414
:100C4000C06142F48072B1F5806FC266EED150F897
:100C5000141C012262F34A2140F8141C40F21C01CA
:100C6000C2F200010968322251434DF68362C4F298
:100C70001B32A1FB0212910C0268520511D54A1CCD
:100C80000FD0026852050CD559B10268520508D53B
:100C9000012906D00268520503D50229A1F10401F9
:100CA000EAD10068400544BF03207047BEE700BF9B
:100CB00047F21400C4F2000050F8141C022262F340
:100CC0004A2140F8141C00207047000047F2080039
:100CD000C4F20000016841F48041016070470000E7
:100CE0002DE9F04700286DD042F2000AC4F2020A52
:100CF0000446DAF800000D4600F00F0088420CD2DE
:100D0000DAF8000020F00F002843CAF80000DAF8F3
:100D1000000000F00F00A84254D1216841F20808F9
:100D2000C807C4F2020803D1880740F1D880BDE0AB
:100D3000606802283AD0032840D158F8082C920164
:100D400040D5D8F80420D8F8043042F2004702F029
:100D50000302C3F30313C0F2F4070133032A04BFF1
:100D600043F20067C0F26E17D8F80420B7FBF3F324
:100D7000D8F80470C2F306225A43C7F3416302272E
:100D800007EB4303B2FBF3F24BF20043C0F2C44360
:100D90009A4261D9D8F8002012F0F00F51D089079B
:100DA0005AD5A168002957D14BE000BF58F8081C5C
:100DB00089035CBF0120BDE8F08707E058F8081CF4
:100DC000490503D40120BDE8F08700BFD8F8001022
:100DD00001F00C0104293FD0D8F8001001F00C01FB
:100DE000082939D0D8F8001001F00C010C2933D1B2
:100DF000D8F80410D8F8042042F2004301F00301AF
:100E0000C2F30312C0F2F4030132032904BF43F218
:100E10000063C0F26E13D8F80410B3FBF2F2D8F8F6
:100E20000430C1F306215143C3F34162022303EBB3
:100E30004202B1FBF2F14BF20042C0F2C4429142D5
:100E40000AD9D8F80010082262F307114FF00109FF
:100E5000C8F8001002E000BF4FF00009D8F80010F9
:100E600021F003010843C8F80000FFF7EBFD064638
:100E700041F28837D8F80000616800F00C00B0EB50
:100E8000810F07D0FFF7DEFD801BB842F2D90320A7
:100E9000BDE8F0872168880708D4B9F1000F1ED09B
:100EA000D8F8000020F0F00017E000BF480705D593
:100EB000D8F8000040F4E060C8F80000080706D544
:100EC000D8F80000072262F30D20C8F80000D8F817
:100ED0000000A26820F0F0001043C8F80000DAF823
:100EE000000000F00F00A8421BD9DAF8000020F043
:100EF0000F002843CAF80000FFF7A4FD064641F2A0
:100F0000883700BFDAF8000000F00F00A84207D0D1
:100F1000FFF798FD801BB842F4D90320BDE8F087A5
:100F20002168480707D5D8F80000E26820F4E0609F
:100F30001043C8F80000080708D5D8F80000216958
:100F400020F4605040EAC100C8F80000D8F8000062
:100F500042F20041C0F2F40100F00C0004280846FF
:100F60002DD0D8F8000000F00C00082843F20060F3
:100F7000C0F26E1023D0D8F8002002F00C020C2A28
:100F80001CD1D8F80420D8F8043002F00302C3F3CF
:100F900003130133032A08BF0146D8F80400B1FB4C
:100FA000F3F1D8F80420C0F306204843C2F34161AE
:100FB000022202EB4101B0FBF1F000E00020D8F882
:100FC000001045F2C052C1F30311C0F60002515C9B
:100FD00040F21C0201F01F0120FA01F140F2000072
:100FE000C2F200000068C2F200021160BDE8F047E2
:100FF000FFF74CBD2DE9F04182B0002800F00681DA
:101000000446007841F20006C007C4F2020655D13A
:101010002078800774D42078000700F1978020782A
:10102000400700F1B7802078800600F10781E5696C
:10103000002D00F03082B06800F00C000C2840F069
:101040005981012D00F0E280F068216A00F003026E
:101050008A4240F0DB80626A6FF00F0300F0F0011B
:1010600003EB0212914240F0D180A16A00F4FE42EB
:10107000B2EB012F40F0CA80E16A00F07842B2EB97
:10108000C16F40F0C380226B0023CFF6E07303EB07
:10109000025200F4C0016FF31402914240F0B68096
:1010A000616B4FF07E4202EB016100F0C06001F025
:1010B0007E41884240F0AA80EDE100BFB06800F0B8
:1010C0000C01F06808295BD0032281F00C0122EAB0
:1010D00000000844B0FA80F0400951D16068B0F5D2
:1010E000803F07D0B0F5A02F40F0DA80306840F4A0
:1010F00080203060306840F480303060DBE000BF3A
:10110000B068F16800F00C00042869D001F0030118
:1011100080F00C0081F002010844B0FA80F0400930
:101120005ED1E1683068002900F0D28040F4807020
:101130003060FFF787FC05463068400500F1FC8011
:10114000FFF780FC401B0228F6D92EE16169D6F832
:101150009400002900F0908040F00100C6F894004F
:10116000FFF770FC054600BFD6F8940080073FF5F6
:1011700056AFFFF767FC401B0228F5D915E100BF09
:10118000306880037FF544AF606800287FF440AF8B
:101190003CE000BFB06D10F0805808D1B06D40F059
:1011A0008050B065B06D00F080500190019847F21A
:1011B0000007C4F200073868C0052BD4386840F433
:1011C00080703860FFF73EFC054600BF3868C005F8
:1011D00020D4FFF737FC401B0228F7D9E5E000BF19
:1011E0003068400501D5E06880B17068216920F061
:1011F000FE4040EA0160706040F20000C2F2000070
:101200000068FFF743FC00283FF405AF012002B05F
:10121000BDE8F081A068012808D0052840F0AA8028
:10122000D6F8900040F00400C6F89000D6F8900080
:1012300040F00100C6F89000A9E000BFA169D6F80F
:101240009800002900F0808040F00100C6F8980066
:10125000FFF7F8FB054600BFD6F8980080073FF57A
:10126000E6AEFFF7EFFB401B02284FF00300F3D977
:1012700002B0BDE8F08100BF20F00100C6F8940084
:10128000FFF7E0FB054600BFD6F8940080077FF526
:10129000C6AEFFF7D7FB401B0228F5D985E000BF9B
:1012A0003168002821F480313160316821F48021D7
:1012B000316000F07F80FFF7C5FB05463068800392
:1012C0003FF5A6AEFFF7BEFB401B6428F6D96CE0E5
:1012D00020F480703060FFF7B5FB054630684005AC
:1012E0007FF599AEFFF7AEFB401B02284FF00300DD
:1012F000F4D9BDE7306820F080703060FFF7A2FBC2
:10130000022D05460CD100BF3068800140F17E807F
:10131000FFF798FB401B02284FF00300F4D9A7E722
:101320003068800140F1B080FFF78CFB401B022841
:101330004FF00300F4D99BE77068216920F0FE406C
:1013400040EA0160706066E620F00100C6F898008F
:10135000FFF778FB054600BFD6F8980080077FF5B9
:1013600066AEFFF76FFB401B02284FF00300F3D976
:101370007EE700BFD6F8901021F00101C6F890106A
:10138000D6F8901021F00401C6F8901010B3FFF7C2
:1013900059FB054641F28837D6F8900080072BD4D8
:1013A000FFF750FB401BB842F6D9032002B0BDE85E
:1013B000F08100BFFFF746FB054600BF30688003A1
:1013C0007FF526AEFFF73EFB401B64284FF003007D
:1013D000F4D94DE7FFF736FB054641F2883700BFE9
:1013E000D6F89000800707D5FFF72CFB401BB842CA
:1013F0004FF00300F4D93BE7B8F1000F7FF413AED0
:10140000B06D20F08050B0650DE600BFF06848F286
:101410000C01C0F29F1104F1200700EA010C8ECFED
:101420006FF00F00D4E90C5400EB02100022CFF64D
:10143000E07241EA0C0102EB055208436FF314021B
:101440004FF07E4540EA032005EB0465104305F0AC
:101450007E4540EAC7602843F060306840F0807005
:101460003060F06840F08070F060FFF7EBFA0446FF
:10147000306880010FD4FFF7E5FA001B02284FF017
:101480000300F5D9F4E600BFF0684FF6FC71CFF623
:10149000EE610840F060002002B0BDE8F08100007D
:1014A000411E0020B0EB116F1CBF012070474EF2AF
:1014B0001002CEF2000251604EF62351CEF200012E
:1014C000F0230B7007219060116070477047000097
:1014D0007047000070470000704700007047000030
:1014E0007047000070B590F83C20012A4FF00202CE
:1014F00047D080F83D20026843F2004C546893685E
:10150000C4F2010C42F6004E6245C4F2010E01D055
:10151000724503D14D6824F470042C434FF68F7547
:10152000CFF6FF550E682C4042F6FF35C4F2010598
:101530003443AA4254600FDCB2F1804F16D040F21F
:101540000046C4F20006B24210D040F60006C4F2D3
:101550000006B2420AD00EE0724507D044F20006FF
:10156000C4F20106B24201D0624504D1896823F079
:101570008003194391600121002280F83D1080F81A
:101580003C20104670BD000070470000002804BFDA
:101590000120704710B5044690F83D0028B900209E
:1015A00084F83C00204600F023F8022084F83D0037
:1015B0002068211D03F0B0FB012084F8480084F866
:1015C0003E0084F83F0084F8400084F8410084F82D
:1015D000420084F8430084F8440084F8450084F80D
:1015E000460084F8470084F83D00002010BD00004C
:1015F00080B586B0006840F2FF71C4F200018842F5
:101600004FF000010591CDE90311CDE901112BDD6A
:1016100040F60001C4F20001884261D044F20001AA
:10162000C4F20101884273D044F20041C4F20101C6
:10163000884240F0B58041F25800C4F2020081684F
:10164000002241F4003181608068002100F4003004
:10165000009000981920FFF769FA192006B0BDE83C
:101660008040FFF753BA00BFB0F1804F68D040F21E
:101670000041C4F20001884240F0928041F25800DB
:10168000C4F20200016841F002010160016801F04A
:1016900002010091009950F80C1C41F0020140F841
:1016A0000C1C50F80C0C002100F002000090009877
:1016B0001020019002200290059040F20040CDE9F8
:1016C0000311C4F6000001A9FFF7C2F81D20002194
:1016D0000022FFF72BFA1D20FFF718FA06B080BD95
:1016E00041F25800C4F202000168002241F00401F6
:1016F00001600068002100F00400009000981E20A6
:10170000FFF714FA1E2006B0BDE88040FFF7FEB9CF
:1017100041F25800C4F202008168002241F4803195
:1017200081608068002100F48030009000981820CB
:10173000FFF7FCF9182006B0BDE88040FFF7E6B9D6
:1017400041F25800C4F20200016841F00101016059
:10175000016801F001010091009950F80C1C41F062
:10176000010140F80C1C50F80C0C01A900F001001C
:10177000009000984FF40040019002200290002059
:10178000CDE90300012005904FF09040FFF760F88D
:101790001C2000210022FFF7C9F91C20FFF7B6F931
:1017A00006B080BD90F83D1001291CBF0120704794
:1017B000022180F83D10016842F6FF32C868C4F289
:1017C0000102914240F00100C8600FDCB1F1804F8E
:1017D0001ED040F20040C4F20000814218D040F612
:1017E0000000C4F20000814212D01EE042F6004028
:1017F000C4F2010081420BD044F20000C4F20100A7
:10180000814205D043F20040C4F2010081420CD174
:1018100088680722C0F201020240062A4FF0000049
:1018200008D0B2F5803F08BF7047086840F001005B
:10183000086000207047000080B590F83C20012A25
:101840004FF0020200F0A98080F83D20D0F800C0DF
:101850008822DCF80830CFF6CE721A40CCF8082087
:101860000B686F2B10DD1F22C0F21002934237DC91
:10187000B3F5005F46DA702B00F09280B3F5805F1D
:1018800000F08480D6E000BF2F2B35DD4F2B3FDCEE
:10189000302B6FD0402B40F0CD80D1F804E0C968E8
:1018A000DCF82030DCF8202022F00102CCF82020E7
:1018B000DCF8182022F0F00242EA011123F00A02BB
:1018C00042EA0E02CCF81810CCF82020DCF8081000
:1018D0004FF68872CFF6CF721140473154E000BF07
:1018E0003F21C0F210018B423ADC2021C0F21001EE
:1018F0008B423FD0302139E0E3B3102B3AD0202B7C
:1019000038D097E060D0B3F1101F33D092E000BF21
:10191000502B6DD0602B40F08D80D1F804E0C96869
:10192000DCF82030DCF8202022F01002CCF8202057
:10193000DCF8182022F4704242EA013123F0A002C0
:1019400042EA0E12CCF81810CCF82020DCF808106F
:101950004FF68872CFF6CF721140673114E000BFA6
:101960004021C0F210018B4204D07021C0F210015E
:101970008B425FD1DCF808104FF68872CFF6CF7239
:101980001140194341F00701CCF808100022012151
:1019900080F83D10002180F83C10104680BD00BF4B
:1019A000D1E901E3C968DCF8082043EA0E0322F418
:1019B0007F4243EA01211143CCF80810DCF80810FB
:1019C00041F07701E0E700BFD1E901E3C968DCF845
:1019D000082043EA0E0322F47F4243EA0121114327
:1019E000CCF80810DCF8081041F48041CCE700BFC7
:1019F000D1F804E0C968DCF82030DCF8202022F0BF
:101A00000102CCF82020DCF8182022F0F00242EA93
:101A1000011123F00A0242EA0E02CCF81810CCF8A9
:101A20002020DCF808104FF68872CFF6CF721140F4
:101A30005731A9E70122AAE7016840F20042C4F247
:101A40000002914210D0B1F1804F1FD1007F0128D8
:101A50001CD140F28000C2F2000000F10C012420F1
:101A6000C4F200000EE000BF007F012818BF7047DD
:101A7000242040F28001C4F20000C2F2000100F50F
:101A80008060103102680A60002101607047000028
:101A9000F0B590F83C30012B04BF0220F0BD4FEAB6
:101AA000B202032A2CD8DFE802F003314F6F00BFE7
:101AB0000368D1E900C5D1F80CE01C6A1A6A42F645
:101AC000FF3722F001021A621A4652F8186FC4F268
:101AD0000107BB4200F37E80B3F1804F00F08C80A1
:101AE00040F20047C4F20007BB4200F0858040F698
:101AF0000007C4F20007BB4200F07E8096E000BF02
:101B00000121002280F83C200846F0BD0368D1E99D
:101B100000E6D1E902C11C6A1A6A360222F01002FC
:101B20001A621A4652F8185F4FF2FF07BE4325F4B7
:101B3000734561F30F3624F0A0040EF00A0746EA5D
:101B4000050144EA07173CE00768D1E900C5D1E97F
:101B500002313C6A3A6A61F3071522F480723A62F4
:101B60003A4652F81C6F26F0F30645EA060124F4C3
:101B700020660CF00A0546EA052611603E621168EF
:101B800021F00C01116048E00368D1E900E6D1E9D9
:101B900002C11C6A1A6A360222F480521A621A467C
:101BA00052F81C5F4FF2FF07BE4325F4734561F303
:101BB0000F3624F420440EF00A0746EA050144EAF1
:101BC000073711601F6211684FEA0C2321F440614E
:101BD000116022E042F60047C4F20107BB420BD07D
:101BE00044F20007C4F20107BB4205D043F20047AC
:101BF000C4F20107BB4219D126F00306354324F095
:101C00000A070CF00A066EF3071537449D611F6240
:101C10009F6927F00C079F618B6811681943116059
:101C20000021002280F83C200846F0BD46F0010566
:101C3000E5E70000002804BF0120704710B5044606
:101C400090F83D0028B9002084F83C00204600F0C0
:101C500023F8022084F83D002068211D03F05CF881
:101C6000012084F8480084F83E0084F83F0084F89E
:101C7000400084F8410084F8420084F8430084F86E
:101C8000440084F8450084F8460084F8470084F84E
:101C90003D00002010BD00007047000080B589B1F4
:101CA0000A1F4FEAB20EBEF1030F41D8DFE80EF073
:101CB00002161E2600F13F0292F800C0082923D127
:101CC0003CE000BF90F83E2090F84430012A4FF0ED
:101CD000010208BF012B1FD0104680BD00F1400259
:101CE00092F800C008290FD128E000BF00F141029E
:101CF00092F800C0082907D120E000BF00F142029D
:101D000092F800C0082919D0042914BF00F1470235
:101D100000F1450214E000BF022280F83E2080F866
:101D200044204FEAB103032B4FF00102D4D852E014
:101D300000F1430292F800C00829E5D100F1460203
:101D40001378BCF1010F4FF0010208BF012BC3D182
:101D5000BEF1030F0CD8DFE80EF003131B2F00BFFA
:101D6000022280F83F200222082917D12AE000BF72
:101D7000022280F84320022208290FD122E000BF6E
:101D8000022280F840200222082907D11AE000BF71
:101D9000022280F841200222082913D0042914BF0E
:101DA00080F8472080F845204FEAB103032B4FF01D
:101DB00001023FF691AF0EE0022280F8422002229B
:101DC0000829EBD180F846204FEAB103032B4FF0EE
:101DD00001023FF681AF46F2A07C0068C0F6000C1D
:101DE0005CF823C0C36801F01F0143EA0C03C36021
:101DF000036A02FA01F123EA01020262026A114354
:101E000042F6FF32C4F201029042016210DCB0F1EE
:101E1000804F1FD040F20041C4F20001884219D027
:101E200040F60001C4F20001884213D020E000BF58
:101E300042F60041C4F2010188420BD044F2000195
:101E4000C4F20101884205D043F20041C4F201010D
:101E500088420DD181680722C0F201021140062993
:101E60004FF000023FF438AFB1F5803F3FF434AF9C
:101E70000168002241F001010160104680BD0000B0
:101E8000F0B581B004460068C5680669B10717D58A
:101E900015F0020114D06FF00201016101212177D8
:101EA0008069800704D02046FFF7C6FD06E000BF2A
:101EB000204600F0CBF8204600F0CAF8002020773A
:101EC000700719D515F0040016D020686FF00401D2
:101ED000016102212177806910F4407F04D02046FF
:101EE000FFF7AAFD06E000BF204600F0AFF820464D
:101EF00000F0AEF800202077300717D515F0080065
:101F000014D020686FF00801016104212177C069B5
:101F1000800703D02046FFF78FFD05E0204600F044
:101F200095F8204600F094F800202077F00619D5A7
:101F300015F0100016D020686FF010010161082123
:101F40002177C06910F4407F04D02046FFF774FD6C
:101F500006E000BF204600F079F8204600F078F84F
:101F600000202077F00718BF15F0010006D0206888
:101F70006FF001010161204600F06CF816F4025F79
:101F800005F0800718BF002F02D1F00509D410E03A
:101F900020686FF4025101612046FFF799FAF005BD
:101FA00007D537B120686FF4807101612046FFF7D3
:101FB0008DFA700609D515F0400006D020686FF044
:101FC00040010161204600F047F8B00609D515F040
:101FD000200006D020686FF0200101612046FFF745
:101FE00079FAF00209D515F4801006D020686FF454
:101FF000801101612046FFF771FAB00209D515F48E
:10200000001006D020686FF4001101612046FFF730
:1020100063FA700209D515F4800006D020686FF4C9
:10202000800101612046FFF75BFA30020CD515F400
:10203000000009D021686FF4000220460A6101B057
:10204000BDE8F040FFF7A0BA01B0F0BD7047000056
:10205000704700007047000070470000FEE7000076
:1020600040F21841C4F60001D1F8FCC30B6943F4F7
:1020700000730B610B6943F480730B610B6843F0D1
:1020800020030B602023C1F8FC330B6943F02003CD
:102090000B6100BF00BF00BF0B6843F020030B6063
:1020A0000B6843F480730B600023C1F8FC330A69AA
:1020B00042F020020A6100BF00BF00BF0A6842F080
:1020C00020020A600A6842F480720A600A6942F4D7
:1020D00000720A610A6942F480720A610A6842F079
:1020E00020020A602122C1F8FC230A6942F0200282
:1020F0000A6100BF00BF00BF0A6842F020020A6008
:102100000A6842F480720A60C1F8FC330A694FF42D
:10211000963342F020020A6100BF00BF00BF0A6888
:1021200042F020020A600A6842F480720A600A697A
:1021300042F400720A610A6942F480720A610A6814
:1021400042F020020A602222C1F8FC230A6942F010
:1021500020020A6100BF00BF00BF0A6842F02002EF
:102160000A600A6842F480720A6000BF00BF00BFC4
:102170000A6842F400720A600A69053B42F4007280
:102180000A610A6842F480720A600A6842F020021A
:102190000A60C1F8FC030A6942F020020A6100BF2C
:1021A00000BF00BF0A6842F020020A600A6842F4D9
:1021B00080720A6000BF00BF00BF0A6842F400726C
:1021C0000A600A6942F400720A610A6842F4807285
:1021D0000A600A6842F020020A60C1F8FC030A693A
:1021E00042F020020A6100BF00BF00BF0A6842F04F
:1021F00020020A600A6842F480720A6000BF00BFD1
:1022000000BF0A6842F400720A600A6942F4007270
:102210000A610A6842F480720A600A6842F0200289
:102220000A60C1F8FC030A6942F020020A6100BF9B
:1022300000BF00BF0A6842F020020A600A6842F448
:1022400080720A6000BF00BF00BF0A6842F40072DB
:102250000A600A6942F400720A610A6842F48072F4
:102260000A600A6842F020020A60C1F8FC030A69A9
:1022700042F020020A6100BF00BF00BF0A6842F0BE
:1022800020020A600A6842F480720A6000BF00BF40
:1022900000BF0A6842F400720A600A6942F40072E0
:1022A0000A610A6842F480720A600A6842F02002F9
:1022B0000A60C1F8FC030A6942F020020A6100BF0B
:1022C00000BF00BF0A6842F020020A600A6842F4B8
:1022D00080720A6000BF00BF00BF0A6842F400724B
:1022E0000A607FF449AFC1F8FCC370472DE9F0479D
:1022F00040F61408C4F60008D8F800900A78E2B155
:1023000045F2D05A04464F1C002640F23F15C0F655
:10231000000A00BFA2F12000C1B2490051FA80F0CA
:102320000AEB0012A9B2204600F00CF8BA5D22B107
:10233000103D132E06F10106ECD3C8F80090BDE85D
:10234000F08700002DE9F04740F21843C4F600037F
:102350001F694FF0200C47F400771F611F694FF091
:10236000210E47F480771F611F6840F2180947F07B
:1023700020071F60C3F8FCC31F6940F2D80A47F06A
:1023800020071F6100BF00BF00BF1F684FF0220879
:1023900047F020071F601F68C2F2000947F48077EA
:1023A0001F60C3F8FC031F69C2F2000A47F0200750
:1023B0001F6100BF00BF00BF1F6847F020071F60FC
:1023C0001F6847F480771F601F6947F400771F611B
:1023D0001F6947F480771F611F6847F020071F605F
:1023E000C3F8FCE31C6944F020041C6100BF00BF7B
:1023F00000BF1C6844F020041C601C6844F4807416
:102400001C60C3F8FC131C6944F020041C6100BF6D
:1024100000BF00BF1C6844F020041C601C6844F42A
:1024200080741C60002400BF1D6945F400751D61A7
:102430001D6945F480751D611D6845F020051D600E
:10244000C3F8FC831D6945F020051D6100BF00BF76
:1024500000BF1D6845F020051D601D6845F48075AE
:102460001D6000BF00BF00BF1D6845F400751D6002
:10247000002500BF32F81460EE40F607564608BF4C
:102480004E4636881F6947F400771F611F6847F47E
:1024900080771F601F6847F020071F60C3F8FC6348
:1024A0001E696F1C46F020061E6100BF00BF00BF02
:1024B0001E6846F020061E601E6846F480761E6088
:1024C00000BF00BF00BF1E6846F400761E6032F8F1
:1024D0001460FE40F607564608BF4E4636881F6910
:1024E00047F400771F611F6847F480771F601F68FB
:1024F00047F020071F60C3F8FC631E69AF1C46F05D
:1025000020061E6100BF00BF00BF1E6846F0200607
:102510001E601E6846F480761E6000BF00BF00BFCC
:102520001E6846F400761E6032F81460FE40F6071E
:10253000564608BF4E4636881F6947F400771F612C
:102540001F6847F480771F601F6847F020071F60EF
:10255000C3F8FC631E69EF1C46F020061E6100BF35
:1025600000BF00BF1E68043546F020061E601E68CE
:1025700046F480761E6000BF00BF00BF1E6846F4B0
:1025800000761E6032F81460FE40F607564608BF1B
:102590004E4636881F69102D47F400771F611F686B
:1025A00047F480771F601F6847F020071F60C3F85B
:1025B000FC631E6946F020061E6100BF00BF00BF1D
:1025C0001E6846F020061E601E6846F480761E6077
:1025D00000BF00BF00BF1E6846F400761E607FF497
:1025E00049AF1D69013045F400751D611D69013455
:1025F00045F480751D611D68182C45F020051D608F
:10260000C3F8FCC31D6945F020051D6100BF00BF74
:1026100000BF1D6845F020051D601D6845F48075EC
:102620001D60C5B2C3F8FC531D6945F020051D614E
:1026300000BF00BF00BF1D6845F020051D601D687C
:1026400045F480751D601D6945F400751D611D69A7
:1026500045F480751D611D6845F020051D60C3F8B7
:10266000FCE31D6945F020051D6100BF00BF00BFF0
:102670001D6845F020051D601D6845F480751D60CE
:10268000C3F8FC131D6945F020051D6100BF00BFA4
:1026900000BF1D6845F020051D601D6845F480756C
:1026A0001D6008BFBDE8F087BEE600002DE9F04FD1
:1026B0008BB040F61408C4F60008D8F800000025D6
:1026C000009041F24C000595C4F20200016840F20E
:1026D000184741F0040101600168C4F6000701F0E9
:1026E000040106910699016801AC41F00101016005
:1026F00001684FF0030901F0010106910699016894
:10270000012641F0020101600068214600F002004C
:10271000069006984FF44870019001200290A7F1AE
:102720001800CDE90359FEF793F84FF48070CDE916
:1027300001064FF090402146CDE90359FEF788F895
:102740004FF6FF7007F57A74069006A920460A95A1
:102750004FF6FF7ACDF82490CDE90765FEF778F8BB
:102760004FF6004BCFF6FF7B57F80B0006A940F45D
:10277000807047F80B0038684FF6FF7640F4087019
:102780003860386940F400703861386940F480700E
:102790003861386840F020003860C8F80050386967
:1027A00040F02000386100BF00BF00BF386840F033
:1027B00020003860386840F48070386020460A9500
:1027C000CDF818A0CDF82490CDE90755FEF740F8D4
:1027D0004FF61048CFF6FF7857F8080007A940F4E5
:1027E000807047F8080000BF00BF00BFD7F8F8A30B
:1027F00057F80B0040F4807047F80B00012081E887
:10280000210206A920460A950696FEF721F83868A7
:1028100048F2302140F40070386040F2DA00C2F231
:102820000000A0F800A00088884203D100F044FA1C
:1028300002E000BF00F0B4FF3869002640F40070E9
:10284000386138694FF6FF7940F480703861386834
:102850004FF0030A40F02000386040F61400C4F640
:1028600000000660386906A940F02000386100BF0A
:1028700000BF00BF386840F020003860386840F47E
:102880008070386020460A96CDE90696CDE9086A40
:10289000FDF7DEFF57F8080007A940F4807047F8FD
:1028A000080000BF00BF00BFD7F8F85357F80B006F
:1028B00040F4807047F80B00012081E8410406A92C
:1028C00020460A96CDF81890FDF7C2FF386840F60A
:1028D000140140F40070386040F2DA00C2F20000E7
:1028E00005800098C4F6000108600BB0BDE8F08FC9
:1028F00081B0ADF80200BDF8020040F21801C2F24A
:102900000001088001B0704781B0ADF80200BDF849
:10291000020040F2D801C2F20001088001B0704705
:102920002DE9F04387B04FF0000841F24C00CDF89C
:102930001880C4F20200016840F6000541F004016D
:1029400001600168C4F6000501F0040101910199DC
:102950000168012241F02001016001684FF47F46C7
:1029600001F02001019101990168012741F0010165
:102970000160016801F0010101910199016841F0D4
:1029800002010160016801F00201019101990168F1
:1029900041F00801016000684FF47F4100F0080039
:1029A000019001982846FEF747F805F58064204617
:1029B000042100224FF00409FEF73EF802A880E847
:1029C000C00102AE28463146CDF81480FDF740FF25
:1029D0004FF090403146CDE902780497FDF738FF7B
:1029E0000720CDE90208A5F5806031460497FDF780
:1029F0002FFF20463146CDE90297CDE90488FDF747
:102A000027FF07B0BDE8F08380B588B040F2DC0056
:102A100044F200020021C2F20000C4F2010241F6B9
:102A20003F734FF6FF7C0791CDE905110291C0E994
:102A30000023C0E9021CC0E904118161FEF7A6FD74
:102A4000002818BFFDF778FD4FF48050049040F245
:102A5000DC00C2F2000004A9FEF7EEFE002818BF59
:102A6000FDF76AFD00200190039040F2DC00C2F205
:102A7000000001A9FEF736FD002818BFFDF75CFD38
:102A800008B080BD80B540F2281044F20041C2F287
:102A90000000C4F20101002341F63F724FF6FF7CB3
:102AA00080E80E10C0E904338361FEF76FFD002853
:102AB00008BF80BDBDE88040FDF73EBD10B58CB0BD
:102AC00040F274100021C2F200004FF080424F2308
:102AD0004FF0FF340B91CDE909110791CDE90511B4
:102AE000CDE90311CDE90111C0E90023C0E90214C9
:102AF00001618161FEF74AFD002818BFFDF71CFD4A
:102B00004FF48050089040F27410C2F2000008A9FF
:102B1000FEF792FE002818BFFDF70EFD40F274107C
:102B2000C2F20000FFF786F8002818BFFDF704FD89
:102B300040F274100024C2F2000005A90594079425
:102B4000FEF7D0FC002818BFFDF7F6FC0120CDE908
:102B5000020440F27410C2F2000001A900220194A4
:102B60000494FEF795FF002818BFFDF7E5FC0CB0B4
:102B700010BD000010B58CB040F2C01040F2004211
:102B80000021C2F20000C4F200024F234FF6FF748E
:102B90000B91CDE909110791CDE90511CDE903119B
:102BA000CDE90111C0E90023C0E90214016181618E
:102BB000FEF7ECFC002818BFFDF7BEFC4FF4805078
:102BC000089040F2C010C2F2000008A9FEF734FEDF
:102BD000002818BFFDF7B0FC40F2C010C2F20000A0
:102BE000FFF728F8002818BFFDF7A6FC40F2C01038
:102BF0000024C2F2000005A905940794FEF772FCB8
:102C0000002818BFFDF798FC0120CDE9020440F22E
:102C1000C010C2F2000001A9002201940494FEF742
:102C200037FF002818BFFDF787FC0CB010BD00006F
:102C300080B588B040F20C2040F600020021C2F2BC
:102C40000000C4F2000241F63F734FF6FF7C07918B
:102C5000CDE905110291C0E90023C0E9021C016120
:102C60008161FEF793FC002818BFFDF765FC4FF467
:102C70008050049040F20C20C2F2000004A9FEF73C
:102C8000DBFD002818BFFDF757FC002001900390E2
:102C900040F20C20C2F2000001A9FEF723FC00283C
:102CA00018BFFDF749FC08B080BD0000FEE700003A
:102CB000FEE700007047000040F21840C4F6000034
:102CC0000169002241F40071016101694FF0030CB8
:102CD00041F480710161016841F020010160C0F898
:102CE000FC23016941F02001016100BF00BF00BF6A
:102CF000016841F020010160016841F480710160C8
:102D00000121C0F8FC13036943F02003036100BFF5
:102D100000BF00BF036843F020030360036843F46F
:102D200080730360036943F400730361036943F430
:102D300080730361036843F020030360C0F8FC1351
:102D4000036943F02003036100BF00BF00BF0368B5
:102D500043F020030360036843F480730360C0F80A
:102D6000FC23026942F02002026100BF00BF00BFE5
:102D7000026842F020020260026842F4807202603F
:102D8000026942F400720261026942F480720261D7
:102D9000026842F0200202601022C0F8FC2302699F
:102DA00042F02002026100BF00BF00BF026842F093
:102DB00020020260026842F48072026041F2907266
:102DC000C0F8FC23026942F02002026100BF00BF8C
:102DD00000BF026842F020020260026842F4807282
:102DE0000260026942F400720261026942F4807278
:102DF0000261026842F0200202606022C0F8FC23F7
:102E0000026942F02002026100BF00BF00BF0268F9
:102E100042F020020260026842F4807202604FF4C5
:102E20001C52C0F8FC23026942F02002026100BF7C
:102E300000BF00BF026842F020020260026842F454
:102E400080720260026942F400720261026942F417
:102E500080720261026842F0200202606122C0F8C2
:102E6000FC23026942F02002026100BF00BF00BFE4
:102E7000026842F020020260026842F4807202603E
:102E8000C0F8FC13016941F02001016100BF00BFDF
:102E900000BF016841F020010160016841F48071C8
:102EA0000160016941F400710161016941F48071BF
:102EB0000161016841F0200101604621C0F8FC1366
:102EC000016941F02001016100BF00BF00BF01683E
:102ED00041F020010160016841F48071016002212C
:102EE000C0F8FC13026942F02002026100BF00BF7B
:102EF00000BF026842F020020260026842F4807261
:102F00000260026942F400720261026942F4807256
:102F10000261026842F0200202601322C0F8FC2322
:102F2000026942F02002026100BF00BF00BF0268D8
:102F300042F020020260026842F48072026048F2AD
:102F40001002C0F8FC23026942F02002026100BFB7
:102F500000BF00BF026842F020020260026842F433
:102F600080720260026942F400720261026942F4F6
:102F700080720261026842F0200202601222C0F8F0
:102F8000FC23026942F02002026100BF00BF00BFC3
:102F9000026842F020020260026842F4807202601D
:102FA00048F2FE02C0F8FC23026942F020020261EE
:102FB00000BF00BF00BF026842F02002026002684A
:102FC00042F480720260026942F400720261026996
:102FD00042F480720261026842F020020260C0F88E
:102FE000FC13016941F02001016100BF00BF00BF77
:102FF000016841F020010160016841F480710160C5
:103000004FF4A061C0F8FC13016941F02001016197
:1030100000BF00BF00BF016841F0200101600168EE
:1030200041F480710160016941F40071016101693D
:1030300041F480710161016841F020010160C0F834
:10304000FCC3026942F02002026100BF00BF00BF62
:10305000026842F020020260026842F4807202605C
:1030600041F23002C0F8FC23026942F02002026102
:1030700000BF00BF00BF026842F020020260026889
:1030800042F480720260026942F4007202610269D5
:1030900042F480720261026842F020020260302233
:1030A000C0F8FC23026942F02002026100BF00BFA9
:1030B00000BF026842F020020260026842F480729F
:1030C000026040F20332C0F8FC23036943F020039E
:1030D000036100BF00BF00BF036843F0200303602B
:1030E000036843F480730360036943F4007303616E
:1030F000036943F480730361036843F020030360B2
:103100003123C0F8FC33036943F02003036100BF9F
:1031100000BF00BF036843F020030360036843F46B
:1031200080730360C0F8FC23036943F0200303614C
:1031300000BF00BF00BF036843F0200303600368C3
:1031400043F480730360036943F40073036103690C
:1031500043F480730361036843F020030360322368
:10316000C0F8FC33036943F02003036100BF00BFD4
:1031700000BF036843F020030360036843F48073D7
:103180000360C0F8FC23036943F02003036100BF20
:1031900000BF00BF036843F020030360036843F4EB
:1031A00080730360036943F400730361036943F4AC
:1031B00080730361036843F0200303603323C0F886
:1031C000FC33036943F02003036100BF00BF00BF6D
:1031D000036843F020030360036843F480730360D3
:1031E0004FF44073C0F8FC33016941F020010161E4
:1031F00000BF00BF00BF016841F02001016001680D
:1032000041F480710160016941F40071016101695B
:1032100041F480710161016841F0200101603421B5
:10322000C0F8FC13016941F02001016100BF00BF3B
:1032300000BF016841F020010160016841F4807124
:103240000160C0F8FCC3016941F02001016100BFC9
:1032500000BF00BF016841F020010160016841F436
:1032600080710160016941F400710161016941F4FB
:1032700080710161016841F0200101603521C0F8D1
:10328000FC13016941F02001016100BF00BF00BFD4
:10329000016841F020010160016841F48071016022
:1032A000C0F8FC23016941F02001016100BF00BFAB
:1032B00000BF016841F020010160016841F48071A4
:1032C0000160016941F400710161016941F480719B
:1032D0000161016841F0200101603621C0F8FC1352
:1032E000016941F02001016100BF00BF00BF01681A
:1032F00041F020010160016841F4807101601421F6
:10330000C0F8FC13016941F02001016100BF00BF5A
:1033100000BF016841F020010160016841F4807143
:103320000160016941F400710161016941F480713A
:103330000161016841F0200101603721C0F8FC13F0
:10334000016941F02001016100BF00BF00BF0168B9
:1033500041F020010160016841F480710160C0F812
:10336000FC23016941F02001016100BF00BF00BFE3
:10337000016841F020010160016841F48071016041
:10338000016941F400710161016941F480710161D9
:10339000016841F0200101603821C0F8FC13016987
:1033A00041F02001016100BF00BF00BF016841F092
:1033B00020010160016841F480710160C0F8FC23C4
:1033C000016941F02001016100BF00BF00BF016839
:1033D00041F020010160016841F4807101600169E0
:1033E00041F400710161016941F48071016101687A
:1033F00041F0200101603921C0F8FC13016941F05E
:103400002001016100BF00BF00BF016841F0200141
:103410000160016841F480710160C0F8FC2301691A
:1034200041F02001016100BF00BF00BF016841F011
:1034300020010160016841F480710160016941F47B
:1034400000710161016941F480710161016841F01D
:10345000200101603A21C0F8FC13016941F020010C
:10346000016100BF00BF00BF016841F020010160A1
:10347000016841F480710160C0F8FC33016941F0DA
:103480002001016100BF00BF00BF016841F02001C1
:103490000160016841F480710160016941F40071CB
:1034A0000161016941F480710161016841F020010D
:1034B00001603B21C0F8FC13016941F0200101616A
:1034C00000BF00BF00BF016841F02001016001683A
:1034D00041F480710160C0F8FCC3016941F0200132
:1034E000016100BF00BF00BF016841F02001016021
:1034F000016841F480710160016941F4007101616A
:10350000016941F480710161016841F020010160AD
:103510003C21C0F8FC13016941F02001016100BFAA
:1035200000BF00BF016841F020010160016841F463
:1035300080710160C0F8FC23016941F02001016144
:1035400000BF00BF00BF016841F0200101600168B9
:1035500041F480710160016941F400710161016908
:1035600041F480710161016841F0200101603D2159
:10357000C0F8FC13016941F02001016100BF00BFE8
:1035800000BF016841F020010160016841F48071D1
:1035900001604FF4A051C0F8FC13016941F0200113
:1035A000016100BF00BF00BF016841F02001016060
:1035B000016841F480710160016941F400710161A9
:1035C000016941F480710161016841F020010160ED
:1035D0009221C0F8FC13016941F02001016100BF94
:1035E00000BF00BF016841F020010160016841F4A3
:1035F000807101604FF40071C0F8FC13016941F063
:103600002001016100BF00BF00BF016841F020013F
:103610000160016841F480710160016941F4007149
:103620000161016941F480710161016841F020018B
:1036300001609321C0F8FC13016941F02001016190
:1036400000BF00BF00BF016841F0200101600168B8
:1036500041F480710160C0F8FC23016941F0200150
:10366000016100BF00BF00BF016841F0200101609F
:10367000016841F480710160016941F400710161E8
:10368000016941F480710161016841F0200101602C
:103690009021C0F8FC13016941F02001016100BFD5
:1036A00000BF00BF016841F020010160016841F4E2
:1036B0008071016040F60D01C0F8FC13016941F012
:1036C0002001016100BF00BF00BF016841F020017F
:1036D0000160016841F480710160016941F4007189
:1036E0000161016941F480710161016841F02001CB
:1036F0000160C0F8FCC3016941F02001016100BF15
:1037000000BF00BF016841F020010160016841F481
:103710008071016041F21801C0F8FC13016941F0A9
:103720002001016100BF00BF00BF016841F020011E
:103730000160016841F480710160016941F4007128
:103740000161016941F480710161016841F020016A
:1037500001600721C0F8FC13016941F020010161FB
:1037600000BF00BF00BF016841F020010160016897
:1037700041F48071016040F27311C0F8FC130169DB
:1037800041F02001016100BF00BF00BF016841F0AE
:1037900020010160016841F4807101607047000000
:1037A0002DE9F04F81B040F21844C4F600042069BE
:1037B0004FF0120940F4007020612069002540F4A8
:1037C000807020612068112640F020002060E320F6
:1037D000C4F8FC0320694FF0130B40F02000206177
:1037E00000BF00BF00BF2068102740F0200020600D
:1037F00020684FF0070840F48070206043F2080012
:10380000C4F8FC03206940F02000206100BF00BF25
:1038100000BF206840F020002060206840F48070E5
:103820002060206940F400702061206940F48070BD
:103830002061206840F020002060E720C4F8FC03ED
:10384000206940F02000206100BF00BF00BF206859
:1038500040F020002060206840F480702060C4F8B0
:10386000FC93206940F02000206100BF00BF00BF32
:10387000206840F020002060206840F480702060C4
:10388000206940F400702061206940F4807020615C
:10389000206840F020002060EF20C4F8FC0320697D
:1038A00040F02000206100BF00BF00BF206840F052
:1038B00020002060206840F48070206041F23120B8
:1038C000C4F8FC03206940F02000206100BF00BF65
:1038D00000BF206840F020002060206840F4807025
:1038E0002060206940F400702061206940F48070FD
:1038F0002061206840F0200020600120C4F8FC0313
:10390000206940F02000206100BF00BF00BF206898
:1039100040F020002060206840F480702060C4F8EF
:10392000FC53206940F02000206100BF00BF00BFB1
:10393000206840F020002060206840F48070206003
:10394000206940F400702061206940F4807020619B
:10395000206840F0200020600220C4F8FC032069A9
:1039600040F02000206100BF00BF00BF206840F091
:1039700020002060206840F4807020604FF4E060F8
:10398000C4F8FC03206940F02000206100BF00BFA4
:1039900000BF206840F020002060206840F4807064
:1039A0002060206940F400702061206940F480703C
:1039B0002061206840F0200020600320C4F8FC0350
:1039C000206940F02000206100BF00BF00BF2068D8
:1039D00040F020002060206840F48070206041F2B8
:1039E0003000C4F8FC03206940F02000206100BFD3
:1039F00000BF00BF206840F020002060206840F435
:103A000080702060206940F400702061206940F4DB
:103A100080702061206840F0200020600420C4F8FD
:103A2000FC03206940F02000206100BF00BF00BF00
:103A3000206840F020002060206840F48070206002
:103A4000C4F8FC53206940F02000206100BF00BF93
:103A500000BF206840F020002060206840F48070A3
:103A60002060206940F400702061206940F480707B
:103A70002061206840F0200020600820C4F8FC038A
:103A8000206940F02000206100BF00BF00BF206817
:103A900040F020002060206840F48070206040F2F8
:103AA0000720C4F8FC03206940F02000206100BF1B
:103AB00000BF00BF206840F020002060206840F474
:103AC00080702060206940F400702061206940F41B
:103AD00080702061206840F0200020600920C4F838
:103AE000FC03206940F02000206100BF00BF00BF40
:103AF000206840F020002060206840F48070206042
:103B0000C4F8FC53206940F02000206100BF00BFD2
:103B100000BF206840F020002060206840F48070E2
:103B20002060206940F400702061206940F48070BA
:103B30002061206840F0200020600A20C4F8FC03C7
:103B4000206940F02000206100BF00BF00BF206856
:103B500040F020002060206840F480702060C4F8AD
:103B6000FC53206940F02000206100BF00BF00BF6F
:103B7000206840F020002060206840F480702060C1
:103B8000206940F400702061206940F48070206159
:103B9000206840F0200020600C20C4F8FC0320695D
:103BA00040F02000206100BF00BF00BF206840F04F
:103BB00020002060206840F480702060C4F8FC532E
:103BC000206940F02000206100BF00BF00BF2068D6
:103BD00040F020002060206840F480702060206960
:103BE00040F400702061206940F4807020612068FA
:103BF00040F0200020600D20C4F8FC03206940F054
:103C00002000206100BF00BF00BF206840F02000FE
:103C10002060206840F480702060C4F8FC53206964
:103C200040F02000206100BF00BF00BF206840F0CE
:103C300020002060206840F480702060206940F4FB
:103C400000702061206940F480702061206840F09D
:103C5000200020600F20C4F8FC03206940F0200001
:103C6000206100BF00BF00BF206840F0200020603E
:103C7000206840F480702060C4F8FC53206940F054
:103C80002000206100BF00BF00BF206840F020007E
:103C90002060206840F480702060206940F400704B
:103CA0002061206940F480702061206840F020008D
:103CB00020601020C4F8FC03206940F0200020613F
:103CC00000BF00BF00BF206840F0200020602068D7
:103CD00040F480702060C4F8FC53206940F020005C
:103CE000206100BF00BF00BF206840F020002060BE
:103CF000206840F480702060206940F400702061EA
:103D0000206940F480702061206840F0200020602D
:103D1000C4F8FC63206940F02000206100BF00BFB0
:103D200000BF206840F020002060206840F48070D0
:103D300020600720C4F8FC03206940F020002061C7
:103D400000BF00BF00BF206840F020002060206856
:103D500040F480702060206940F400702061206988
:103D600040F480702061206840F020002060C4F89A
:103D7000FC93206940F02000206100BF00BF00BF1D
:103D8000206840F020002060206840F480702060AF
:103D9000C4F8FC53206940F02000206100BF00BF40
:103DA00000BF206840F020002060206840F4807050
:103DB0002060206940F400702061206940F4807028
:103DC0002061206840F020002060C4F8FCB3206926
:103DD00040F02000206100BF00BF00BF206840F01D
:103DE00020002060206840F480702060C4F8FC53FC
:103DF000206940F02000206100BF00BF00BF2068A4
:103E000040F020002060206840F480702060C820CE
:103E1000FCF70AFD20694FF0320A40F4007020617F
:103E2000206940F480702061206840F0200020600C
:103E3000C4F8FC732069102740F02000206100BF07
:103E400000BF00BF206840F020002060206840F4E0
:103E50008070206041F29060C4F8FC03206940F05B
:103E60002000206100BF00BF00BF206840F020009C
:103E70002060206840F480702060206940F4007069
:103E80002061206940F480702061206840F02000AB
:103E90002060C4F8FC63206940F02000206100BF6E
:103EA00000BF00BF206840F020002060206840F480
:103EB0008070206040F22720C4F8FC03206940F0A5
:103EC0002000206100BF00BF00BF206840F020003C
:103ED0002060206840F4807020603220FCF7A4FC51
:103EE000206940F400702061206940F480702061F6
:103EF000206840F020002060C4F8FC93206940F066
:103F00002000206100BF00BF00BF206840F02000FB
:103F10002060206840F4807020601D20C4F8FC03FD
:103F2000206940F02000206100BF00BF00BF206872
:103F300040F020002060206840F480702060322033
:103F4000FCF772FC206940F400702061206940F4A5
:103F500080702061206840F020002060C4F8FCB32D
:103F6000206940F02000206100BF00BF00BF206832
:103F700040F020002060206840F4807020604FF402
:103F80000060C4F8FC03206940F02000206100BFFD
:103F900000BF00BF206840F020002060206840F48F
:103FA00080702060206940F400702061206940F436
:103FB00080702061206840F0200020602920C4F833
:103FC000FC03206940F02000206100BF00BF00BF5B
:103FD000206840F020002060206840F4807020605D
:103FE0001420C4F8FC03206940F02000206100BFC9
:103FF00000BF00BF206840F020002060206840F42F
:1040000080702060206940F400702061206940F4D5
:1040100080702061206840F0200020602B20C4F8D0
:10402000FC03206940F02000206100BF00BF00BFFA
:10403000206840F020002060206840F480702060FC
:104040000B20C4F8FC03206940F02000206100BF71
:1040500000BF00BF206840F020002060206840F4CE
:10406000807020603220FCF7DFFB2069032140F4E0
:10407000007020612069072240F480702061206870
:1040800040F0200020602020C4F8FC03206940F0AC
:104090002000206100BF00BF00BF206840F020006A
:1040A0002060206840F480702060C4F8FC532069D0
:1040B00040F02000206100BF00BF00BF206840F03A
:1040C00020002060206840F480702060206940F467
:1040D00000702061206940F480702061206840F009
:1040E000200020602120C4F8FC03206940F020005B
:1040F000206100BF00BF00BF206840F020002060AA
:10410000206840F480702060C4F8FC53206940F0BF
:104110002000206100BF00BF00BF206840F02000E9
:104120002060206840F480702060206940F40070B6
:104130002061206940F480702061206840F02000F8
:1041400020603020C4F8FC03206940F0200020618A
:1041500000BF00BF00BF206840F020002060206842
:1041600040F480702060C4F8FC83206940F0200097
:10417000206100BF00BF00BF206840F02000206029
:10418000206840F480702060206940F40070206155
:10419000206940F480702061206840F02000206099
:1041A0003120C4F8FC03206940F02000206100BFEA
:1041B00000BF00BF206840F020002060206840F46D
:1041C0008070206040F20770C4F8FC03206940F062
:1041D0002000206100BF00BF00BF206840F0200029
:1041E0002060206840F480702060206940F40070F6
:1041F0002061206940F480702061206840F0200038
:104200002060C4F8FCA3206940F02000206100BFBA
:1042100000BF00BF206840F020002060206840F40C
:10422000807020600620C4F8FC03206940F0200064
:10423000206100BF00BF00BF206840F02000206068
:10424000206840F480702060206940F40070206194
:10425000206940F480702061206840F020002060D8
:104260003520C4F8FC03206940F02000206100BF25
:1042700000BF00BF206840F020002060206840F4AC
:104280008070206040F20470C4F8FC03206940F0A4
:104290002000206100BF00BF00BF206840F0200068
:1042A0002060206840F480702060206940F4007035
:1042B0002061206940F480702061206840F0200077
:1042C00020603620C4F8FC03206940F02000206103
:1042D00000BF00BF00BF206840F0200020602068C1
:1042E00040F48070206041F60470C4F8FC0320693B
:1042F00040F02000206100BF00BF00BF206840F0F8
:1043000020002060206840F480702060206940F424
:1043100000702061206940F480702061206840F0C6
:10432000200020603720C4F8FC03206940F0200002
:10433000206100BF00BF00BF206840F02000206067
:10434000206840F4807020600420C4F8FC032069D9
:1043500040F02000206100BF00BF00BF206840F097
:1043600020002060206840F480702060206940F4C4
:1043700000702061206940F480702061206840F066
:10438000200020603820C4F8FC03206940F02000A1
:10439000206100BF00BF00BF206840F02000206007
:1043A000206840F480702060C4F8FC53206940F01D
:1043B0002000206100BF00BF00BF206840F0200047
:1043C0002060206840F480702060206940F4007014
:1043D0002061206940F480702061206840F0200056
:1043E00020603920C4F8FC03206940F020002061DF
:1043F00000BF00BF00BF206840F0200020602068A0
:1044000040F48070206040F20670C4F8FC0320691C
:1044100040F02000206100BF00BF00BF206840F0D6
:1044200020002060206840F480702060206940F403
:1044300000702061206940F480702061206840F0A5
:10444000200020603C20C4F8FC03206940F02000DC
:10445000206100BF00BF00BF206840F02000206046
:10446000206840F48070206040F20170C4F8FC03C2
:10447000206940F02000206100BF00BF00BF20681D
:1044800040F020002060206840F4807020602069A7
:1044900040F400702061206940F480702061206841
:1044A00040F0200020603D20C4F8FC03206940F06B
:1044B0002000206100BF00BF00BF206840F0200046
:1044C0002060206840F4807020600F20C4F8FC0356
:1044D000206940F02000206100BF00BF00BF2068BD
:1044E00040F020002060206840F480702060206947
:1044F00040F400702061206940F4807020612068E1
:1045000040F0200020605020C4F8FC03206940F0F7
:104510002000206100BF00BF00BF206840F02000E5
:104520002060206840F480702060C4F8FC5320694B
:1045300040F02000206100BF00BF00BF206840F0B5
:1045400020002060206840F480702060206940F4E2
:1045500000702061206940F480702061206840F084
:10456000200020605120C4F8FC03206940F02000A6
:10457000206100BF00BF00BF206840F02000206025
:10458000206840F480702060EF20C4F8FC032069AC
:1045900040F02000206100BF00BF00BF206840F055
:1045A00020002060206840F480702060206940F482
:1045B00000702061206940F480702061206840F024
:1045C000200020605220C4F8FC03206940F0200045
:1045D000206100BF00BF00BF206840F020002060C5
:1045E000206840F480702060C4F8FC53206940F0DB
:1045F0002000206100BF00BF00BF206840F0200005
:104600002060206840F480702060206940F40070D1
:104610002061206940F480702061206840F0200013
:1046200020605320C4F8FC03206940F02000206182
:1046300000BF00BF00BF206840F02000206020685D
:1046400040F48070206040F23F10C4F8FC03206901
:1046500040F02000206100BF00BF00BF206840F094
:1046600020002060206840F480702060206940F4C1
:1046700000702061206940F480702061206840F063
:10468000200020606020C4F8FC03206940F0200076
:10469000206100BF00BF00BF206840F02000206004
:1046A000206840F4807020604FF41C50C4F8FC0374
:1046B000206940F02000206100BF00BF00BF2068DB
:1046C00040F020002060206840F480702060206965
:1046D00040F400702061206940F4807020612068FF
:1046E00040F0200020606120C4F8FC03206940F005
:1046F0002000206100BF00BF00BF206840F0200004
:104700002060206840F4807020600120C4F8FC0321
:10471000206940F02000206100BF00BF00BF20687A
:1047200040F020002060206840F480702060206904
:1047300040F400702061206940F48070206120689E
:1047400040F0200020606A20C4F8FC03206940F09B
:104750002000206100BF00BF00BF206840F02000A3
:104760002060206840F480702060C4F8FC53206909
:1047700040F02000206100BF00BF00BF206840F073
:1047800020002060206840F480702060206940F4A0
:1047900000702061206940F480702061206840F042
:1047A000200020608020C4F8FC03206940F0200035
:1047B000206100BF00BF00BF206840F020002060E3
:1047C000206840F480702060C4F8FC53206940F0F9
:1047D0002000206100BF00BF00BF206840F0200023
:1047E0002060206840F480702060206940F40070F0
:1047F0002061206940F480702061206840F0200032
:1048000020608120C4F8FC03206940F02000206172
:1048100000BF00BF00BF206840F02000206020687B
:1048200040F480702060C4F8FC53206940F0200000
:10483000206100BF00BF00BF206840F02000206062
:10484000206840F480702060206940F4007020618E
:10485000206940F480702061206840F020002060D2
:104860008220C4F8FC03206940F02000206100BFD2
:1048700000BF00BF206840F020002060206840F4A6
:1048800080702060C4F8FC53206940F02000206153
:1048900000BF00BF00BF206840F0200020602068FB
:1048A00040F480702060206940F40070206120692D
:1048B00040F480702061206840F020002060832058
:1048C000C4F8FC03206940F02000206100BF00BF55
:1048D00000BF206840F020002060206840F4807015
:1048E0002060C4F8FC53206940F02000206100BF24
:1048F00000BF00BF206840F020002060206840F426
:1049000080702060206940F400702061206940F4CC
:1049100080702061206840F0200020608420C4F86E
:10492000FC03206940F02000206100BF00BF00BFF1
:10493000206840F020002060206840F480702060F3
:10494000C4F8FC53206940F02000206100BF00BF84
:1049500000BF206840F020002060206840F4807094
:104960002060206940F400702061206940F480706C
:104970002061206840F0200020608520C4F8FC03FE
:10498000206940F02000206100BF00BF00BF206808
:1049900040F020002060206840F480702060C4F85F
:1049A000FC53206940F02000206100BF00BF00BF21
:1049B000206840F020002060206840F48070206073
:1049C000206940F400702061206940F4807020610B
:1049D000206840F0200020609020C4F8FC0320698B
:1049E00040F02000206100BF00BF00BF206840F001
:1049F00020002060206840F480702060C4F8FC73C0
:104A0000206940F02000206100BF00BF00BF206887
:104A100040F020002060206840F480702060206911
:104A200040F400702061206940F4807020612068AB
:104A300040F0200020609220C4F8FC03206940F080
:104A40002000206100BF00BF00BF206840F02000B0
:104A50002060206840F480702060C4F8FC53206916
:104A600040F02000206100BF00BF00BF206840F080
:104A700020002060206840F480702060206940F4AD
:104A800000702061206940F480702061206840F04F
:104A9000200020609320C4F8FC03206940F020002F
:104AA000206100BF00BF00BF206840F020002060F0
:104AB000206840F480702060C4F8FC13206940F046
:104AC0002000206100BF00BF00BF206840F0200030
:104AD0002060206840F480702060206940F40070FD
:104AE0002061206940F480702061206840F020003F
:104AF00020609520C4F8FC03206940F0200020616C
:104B000000BF00BF00BF206840F020002060206888
:104B100040F4807020604FF48870C4F8FC03206972
:104B200040F02000206100BF00BF00BF206840F0BF
:104B300020002060206840F480702060206940F4EC
:104B400000702061206940F480702061206840F08E
:104B5000200020609720C4F8FC03206940F020006A
:104B6000206100BF00BF00BF206840F0200020602F
:104B7000206840F480702060C4F8FC53206940F045
:104B80002000206100BF00BF00BF206840F020006F
:104B90002060206840F480702060206940F400703C
:104BA0002061206940F480702061206840F020007E
:104BB00020609820C4F8FC03206940F020002061A8
:104BC00000BF00BF00BF206840F0200020602068C8
:104BD00040F480702060C4F8FC53206940F020004D
:104BE000206100BF00BF00BF206840F020002060AF
:104BF000206840F480702060206940F400702061DB
:104C0000206940F480702061206840F0200020601E
:104C1000C4F8FC13206940F02000206100BF00BFF1
:104C200000BF206840F020002060206840F48070C1
:104C3000206041F21800C4F8FC03206940F0200015
:104C4000206100BF00BF00BF206840F0200020604E
:104C5000206840F480702060206940F4007020617A
:104C6000206940F480702061206840F020002060BE
:104C7000C4F8FC23206940F02000206100BF00BF81
:104C800000BF206840F020002060206840F4807061
:104C9000206040F27310C4F8FC03206940F020004B
:104CA000206100BF00BF00BF206840F020002060EE
:104CB000206840F48070206001B0BDE8F08F0000F3
:104CC00070470000FBF7C4BE4EF68850CEF20000DD
:104CD000016841F4700101607047000040F2DC009F
:104CE000C2F20000FDF7CCB840F22810C2F200007A
:104CF000FDF7C6B840F27410C2F20000FDF7C0B86C
:104D000040F2C010C2F20000FDF7BAB840F20C2029
:104D1000C2F20000FDF7B4B880B540F2FF7C026833
:104D2000C4F2000C604521DD40F60003C4F200032C
:104D3000984224D043F20043C4F2010398421ED0AB
:104D400042F60043C4F20103984218D043F2FF3305
:104D5000C4F2010398421CDC604529DCB0F1804FAD
:104D60003CD040F20043C4F2000335E0B0F1804F84
:104D700005D040F20043C4F200039842E6D14B68EC
:104D800022F070021A4343F2FF33C4F20103984247
:104D9000E2DD44F2FF33C4F20103984212DC43F235
:104DA0000043C4F20103984218D044F2000311E01A
:104DB00040F60003C4F2000398420FD042F60043CD
:104DC00008E000BF44F60003C4F20103984205D096
:104DD00044F20043C4F20103984203D1CB6822F4A9
:104DE00040721A434B6922F0800E8A6843EA0E0330
:104DF000D1F800C00360C262A0F18042A2F59632F1
:104E00004FEAB222072AC0F828C007D8012303FAC4
:104E100002F212F0E50F1CBF096901630121416133
:104E20000169C90708BF80BD016921F00101016165
:104E300080BD0000FEE7000070B540F20044C4F6FB
:104E4000000420460121FBF7F1FD40F28005C2F28B
:104E50000005E87020460221FBF7E8FD2871204696
:104E60000421FBF7E3FD68714FF090400121FBF74F
:104E7000DDFD40F2080195F803C0C2F2000191F88F
:104E800002E0BCF1010FA8714BD10A79002A48D188
:104E9000BEF1020F45D14A78032A23D0022A13D04B
:104EA000012A3ED18A6802F16403B2F1FF3F8B60B0
:104EB00040F3D680B2F5617F84BF4FF47A728A6086
:104EC0002C79012C30D076E0CA6802F16403B2F587
:104ED000617FCB6010DA4FF47A72CA602C79012CB2
:104EE00022D068E0AA6802F16403B2F5617FAB608A
:104EF0000EDD4FF47A7213E042F2AD639A4224BFA2
:104F000042F21072CA602C79012C0DD053E000BF20
:104F10008A6812F57A7F04DA4FF61842CFF6FF72EC
:104F2000AA602C79012C46D14A79002A43D1BEF1DE
:104F3000020F40D14A78032A18D0022A0AD0012A47
:104F400039D18A68A2F16403C72A8B6022DC64220B
:104F50008A6030E0CA6840F24B46A2F16403B24274
:104F6000CB600FDC4FF47A72CA6024E0AA6840F28A
:104F70004D46A2F16403B242AB6013DB4FF47A7288
:104F800018E000BF42F275739A4224BF42F21072D9
:104F9000CA6010E040F24D439A4224BF4FF47A7247
:104FA0008A6008E08A6812F57A7F04DA4FF61842C0
:104FB000CFF6FF72AA608B796A79012B08BF002AAD
:104FC00012D053EA020617D140F62403C4F20003BC
:104FD0001B6842F21176B34212D3BEF1030F04BF35
:104FE00001232B700CE000BF40F62403C4F2000341
:104FF00000251D6004E000BF002B08BF012A11D06E
:10500000012808D1CB7933B90EF10103DEB2032EAA
:1050100088BF01238B7081F804C04C718A71C871FC
:1050200070BD00BF40F62403C4F200031B6842F2C7
:105030000F75AB42E4D8BEF1010F06D10B780133F6
:10504000DDB2022D88BF01230B70BEF1020FD7D154
:105050004B780133DDB2032D88BF01234B70CFE7BE
:1050600064228A602C79012C3FF45EAFA3E7000034
:105070002DE9F04140F20808C2F2000898F8020059
:1050800098F80310884208D00020FCF7E9FF98F850
:10509000020040F20111A8F8001040F60044C4F6E6
:1050A0000004461E20464FF004014FF0010218BFD5
:1050B0000126FBF7C1FCA4F5806528464FF48071FA
:1050C0003246FBF7B9FC2046042100220026FBF7FC
:1050D000B3FC98F8020003287CD0022846D00128AF
:1050E00040F0D88046F64400C0F6000040F280044C
:1050F00090E88C00C2F20004D0E90360214641F838
:10510000442FC1E903601820C1E90137FDF7EEF82B
:1051100098F80000022800F0C380012840F0BA800F
:1051200044F22400C4F201000021016004F10802ED
:1051300044F2402307CAC0F20F0393FBF1F193FB43
:10514000F2F201441044C4E90510FBF7FBF962696F
:10515000D0087C2800F2C68046F6240104F1440001
:10516000C0F60001FBF7ACF80CE100BFBF4840F20D
:105170008004C2F2000444F8440FBCA0031D0ECB0F
:10518000006904F1040C8CE80E002061182021460F
:10519000FDF7ACF8D8F80820B9A12046FBF790F845
:1051A00048202146FDF7A2F8D8F80C20B8A12046E7
:1051B000FBF786F860202146FDF798F854F83C2C60
:1051C000B7A12046FBF77CF878202146FDF78EF842
:1051D00060E000BF40F28007C2F20007386AB96A97
:1051E00001220844032820464FF00401B8BF0126DD
:1051F000FBF722FC28464FF400413246FBF71CFC2B
:10520000204604210022FBF717FC83A0031D006940
:105210000ECB786580483C4607F1480C44F8440FB3
:105220008CE80E0018202146FDF760F87A6B7FA10C
:105230002046FBF745F848202146FDF757F83A6C21
:105240007EA12046FBF73CF860202146FDF74EF892
:105250003A6A7EA12046FBF733F878202146FDF715
:1052600045F8BA6A7DA12046FBF72AF8902021462E
:10527000FDF73CF8387801280CD1002038703862EE
:10528000B8627863386498F8020088F80300BDE8D3
:10529000F08100BF98F8020088F80300BDE8F081B3
:1052A00044F22400C4F201000021016004F108026C
:1052B00044F2402307CAC0F20F0393FBF1F193FBC2
:1052C000F2F201441044C4E90510FBF73BF9E2682F
:1052D000B2F57A7F1ADA46F2F27104F14400C0F6B0
:1052E000000120E0B2F57A7F3ADB44F6D350C1F2F8
:1052F0006200A2FB00018A0946F6020104F14400A3
:10530000C0F60001FAF7DCFF3CE000BF44F6D350E2
:10531000C1F26200A2FB00018A0946F2E27104F1C7
:105320004400C0F60001FAF7CBFF04F14405482021
:105330002946FCF7DBFF2269B2F57A7F04DA46F2F0
:10534000D171C0F600013BE044F6D350C1F26200D7
:10535000A2FB00018A0946F2C071C0F600012FE0ED
:1053600042F2200044F6554144F22012C0F22000DF
:10537000C2F24C01C4F63D624FF02033C4E9113251
:10538000C4E9131004F1440548202946FCF7AEFF98
:10539000A269D0087C2805D846F63401C0F6000181
:1053A0000EE000BFB2F57A7F18DB44F6D350C1F2AD
:1053B0006200A2FB00018A0946F61301C0F6000153
:1053C0002846FAF77DFF60202946FCF78FFF98F802
:1053D000020088F80300BDE8F08100BF4FF02030E4
:1053E00044F8440F42F2200044F6554144F2202292
:1053F000C0F22000C2F24C01C4F63D62C4E90121B2
:10540000E06060202146FCF771FF98F8020088F800
:105410000300BDE8F08100BF2020202020202020B4
:1054200052454344202020202020200020202020FE
:10543000204E44413D2564202020200020202020B3
:10544000204E44423D2564202020200020202020A2
:10545000204E48413D25642020202000202020208F
:10546000204E48423D25642020202000202020207E
:1054700020202020504152412020202020202000A8
:10548000202020202050443D2564487A2020200000
:10549000202020202050483D2564487A20202000EC
:1054A000202020202050583D2564487A20202000CC
:1054B00094B0FBF7DBFA00244FF400700C94CDE9B4
:1054C0000A44CDE90844FBF76DFB012006904FF438
:1054D00080300790022014210D900325CDE9101093
:1054E000CDE9120006A8CDE90E55FBF783FD28B1E2
:1054F000EFF3108072B600BFFEE700BF0F20CDE9CA
:10550000010501A80221CDE903440594FBF7E8FB5E
:1055100020B1EFF3108072B6FEE700BFFDF700FA8E
:10552000FDF7CCFAFDF726FBFDF782FBFDF76CFAE1
:10553000FDF7A8FA40F60040C4F60000042100225E
:10554000FBF77AFA40F20C20C2F20000FCF72AF9CD
:1055500040F2DC00C2F20000FCF724F940F228100F
:10556000C2F20000FCF71EF940F27410C2F2000013
:105570000021FCF793FB40F2C010C2F200000021B2
:10558000FCF78CFBFDF792F80020FCF769FD00208A
:10559000FDF7AEF94FF6FF70FDF7B6F9FFF74CFCDB
:1055A000FFF766FDFAE7F1EE100A4FF6FF71C0F261
:1055B000C03120EA010040F04070E1EE100A70476F
:1055C00000000000000000000102030406070809B3
:1055D00000000000000000000000000000000000CB
:1055E00000000000000000000000000000000000BB
:1055F00000000000000000000000000000000000AB
:105600000000800180018001800180018001800113
:105610008001800180018001800180010000000084
:105620008001800100000000000000000000000078
:1056300000000000CC00CC00CC00CC00CC00CC00A2
:10564000000000000000000000000000000000005A
:10565000000000000000000000000000000000004A
:10566000000000000000000000000000600C600C62
:10567000600C30063006FE1FFE1F30063807180388
:10568000FE1FFE1F180318038C018C018C01000003
:1056900000008000E003F80F9C0E8C1C8C188C001E
:1056A0009800F801E007800E801C8C188C189C185C
:1056B000B80CF00FE0038000800000000000000044
:1056C0000000000000000E181B0C110C1106110642
:1056D000110311039B018E01C038C06C604460440B
:1056E000304430441844186C0C38000000000000AE
:1056F0000000E001F0033807180618063003F00137
:10570000F000F8009C310E33061E061C061C063FF6
:10571000FC73F02100000000000000000000000009
:10572000000000000C000C000C000C000C000C0031
:105730000000000000000000000000000000000069
:105740000000000000000000000000000000000059
:105750000000000200038001C000C0006000600083
:1057600030003000300030003000300030003000B9
:1057700060006000C000C000800100030002000063
:10578000000020006000C0008001800100030003D1
:1057900000060006000600060006000600060006D9
:1057A0000003000380018001C000600020000000B1
:1057B000000000000000000000000000C000C00069
:1057C000D806F807E00130033807000000000000A9
:1057D00000000000000000000000000000000000C9
:1057E00000000000000000000000000080018001B7
:1057F000800180018001FC3FFC3F8001800180012D
:105800008001800100000000000000000000000096
:105810000000000000000000000000000000000088
:105820000000000000000000000000000000000078
:1058300000008001800100010001800000000000E4
:105840000000000000000000000000000000000058
:105850000000000000000000E007E007000000007A
:105860000000000000000000000000000000000038
:105870000000000000000000000000000000000028
:105880000000000000000000000000000000000018
:105890000000C000C0000000000000000000000088
:1058A0000000000C000C00060006000600030003C8
:1058B00000038003800180018001C000C000C0009F
:1058C0006000600000000000000000000000000018
:1058D0000000E003F007380E180C0C180C180C1818
:1058E0000C180C180C180C180C180C18180C380E76
:1058F000F007E003000000000000000000000000CE
:10590000000000018001C001F001980188018001C0
:10591000800180018001800180018001800180017F
:105920008001800100000000000000000000000075
:105930000000E003F80F180C0C180C1800180018E1
:10594000000C000600038001C00060003000180059
:10595000FC1FFC1F00000000000000000000000011
:105960000000E001F807180E0C0C0C0C000C0006EF
:10597000C003C007000C001800180C180C18180CF5
:10598000F807E00300000000000000000000000035
:105990000000000C000E000F000F800DC00C600C0A
:1059A000600C300C180C0C0CFC3FFC3F000C000C85
:1059B000000C000C000000000000000000000000CF
:1059C0000000F80FF80F180018000C00EC03FC079B
:1059D0001C0E001C0018001800180C181C0C180EC7
:1059E000F807E003000000000000000000000000D5
:1059F0000000C007F00F381C181818000C00CC036A
:105A0000EC0F3C0E1C1C0C180C180C18181C380E33
:105A1000F007E003000000000000000000000000AC
:105A20000000FC1FFC1F000C0006000600038003A2
:105A30008001C001C000E000600060007000300024
:105A400030003000000000000000000000000000F6
:105A50000000E003F007380E180C180C180C38067C
:105A6000F007F007180C0C180C180C180C18380C50
:105A7000F80FE0030000000000000000000000003C
:105A80000000E003F007380E1C0C0C180C180C1862
:105A90001C1C381EF81BE0190018000C000C1C0E12
:105AA000F807F00100000000000000000000000006
:105AB00000000000000000000000000080018001E4
:105AC00000000000000000000000000000000000D6
:105AD00080018001000000000000000000000000C4
